{
	"address": "0x77131F79DA57f7028b7ff3ca8D4Ba6A1aEd2df1B",
	"abi": [
		{
			"inputs": [
				{
					"internalType": "uint256",
					"name": "",
					"type": "uint256"
				}
			],
			"name": "campaigns",
			"outputs": [
				{
					"internalType": "address",
					"name": "owner",
					"type": "address"
				},
				{
					"internalType": "string",
					"name": "title",
					"type": "string"
				},
				{
					"internalType": "string",
					"name": "description",
					"type": "string"
				},
				{
					"internalType": "uint256",
					"name": "target",
					"type": "uint256"
				},
				{
					"internalType": "uint256",
					"name": "deadline",
					"type": "uint256"
				},
				{
					"internalType": "uint256",
					"name": "amountCollected",
					"type": "uint256"
				},
				{
					"internalType": "string",
					"name": "image",
					"type": "string"
				}
			],
			"stateMutability": "view",
			"type": "function"
		},
		{
			"inputs": [
				{
					"internalType": "address",
					"name": "_owner",
					"type": "address"
				},
				{
					"internalType": "string",
					"name": "_title",
					"type": "string"
				},
				{
					"internalType": "string",
					"name": "_description",
					"type": "string"
				},
				{
					"internalType": "uint256",
					"name": "_target",
					"type": "uint256"
				},
				{
					"internalType": "uint256",
					"name": "_deadline",
					"type": "uint256"
				},
				{
					"internalType": "string",
					"name": "_image",
					"type": "string"
				}
			],
			"name": "createCampaign",
			"outputs": [
				{
					"internalType": "uint256",
					"name": "",
					"type": "uint256"
				}
			],
			"stateMutability": "nonpayable",
			"type": "function"
		},
		{
			"inputs": [
				{
					"internalType": "uint256",
					"name": "_id",
					"type": "uint256"
				},
				{
					"internalType": "uint256",
					"name": "amount",
					"type": "uint256"
				}
			],
			"name": "donateToCampaign",
			"outputs": [],
			"stateMutability": "payable",
			"type": "function"
		},
		{
			"inputs": [],
			"name": "getCampaigns",
			"outputs": [
				{
					"components": [
						{
							"internalType": "address",
							"name": "owner",
							"type": "address"
						},
						{
							"internalType": "string",
							"name": "title",
							"type": "string"
						},
						{
							"internalType": "string",
							"name": "description",
							"type": "string"
						},
						{
							"internalType": "uint256",
							"name": "target",
							"type": "uint256"
						},
						{
							"internalType": "uint256",
							"name": "deadline",
							"type": "uint256"
						},
						{
							"internalType": "uint256",
							"name": "amountCollected",
							"type": "uint256"
						},
						{
							"internalType": "string",
							"name": "image",
							"type": "string"
						},
						{
							"internalType": "address[]",
							"name": "donators",
							"type": "address[]"
						},
						{
							"internalType": "uint256[]",
							"name": "donations",
							"type": "uint256[]"
						}
					],
					"internalType": "struct CrowdFunding.Campaign[]",
					"name": "",
					"type": "tuple[]"
				}
			],
			"stateMutability": "view",
			"type": "function"
		},
		{
			"inputs": [
				{
					"internalType": "uint256",
					"name": "_id",
					"type": "uint256"
				}
			],
			"name": "getDonators",
			"outputs": [
				{
					"internalType": "address[]",
					"name": "",
					"type": "address[]"
				},
				{
					"internalType": "uint256[]",
					"name": "",
					"type": "uint256[]"
				}
			],
			"stateMutability": "view",
			"type": "function"
		},
		{
			"inputs": [],
			"name": "numberOfCampaigns",
			"outputs": [
				{
					"internalType": "uint256",
					"name": "",
					"type": "uint256"
				}
			],
			"stateMutability": "view",
			"type": "function"
		}
	],
	"bytecode": "0x6080604052600060015534801561001557600080fd5b50610f8b806100256000396000f3fe6080604052600436106100555760003560e01c806307ca140d1461005a5780630fa91fa914610083578063141961bc146100b15780632b7216e5146100e45780639943e3a1146100f9578063a6b0363314610119575b600080fd5b34801561006657600080fd5b5061007060015481565b6040519081526020015b60405180910390f35b34801561008f57600080fd5b506100a361009e366004610955565b61013b565b60405161007a92919061096e565b3480156100bd57600080fd5b506100d16100cc366004610955565b61020a565b60405161007a9796959493929190610a38565b6100f76100f2366004610aa2565b6103e7565b005b34801561010557600080fd5b50610070610114366004610b67565b6104a8565b34801561012557600080fd5b5061012e6105a8565b60405161007a9190610c94565b600081815260208181526040918290206007810180548451818502810185019095528085526060948594929360080192909184918301828280156101a857602002820191906000526020600020905b81546001600160a01b0316815260019091019060200180831161018a575b50505050509150808054806020026020016040519081016040528092919081815260200182805480156101fa57602002820191906000526020600020905b8154815260200190600101908083116101e6575b5050505050905091509150915091565b600060208190529081526040902080546001820180546001600160a01b03909216929161023690610da1565b80601f016020809104026020016040519081016040528092919081815260200182805461026290610da1565b80156102af5780601f10610284576101008083540402835291602001916102af565b820191906000526020600020905b81548152906001019060200180831161029257829003601f168201915b5050505050908060020180546102c490610da1565b80601f01602080910402602001604051908101604052809291908181526020018280546102f090610da1565b801561033d5780601f106103125761010080835404028352916020019161033d565b820191906000526020600020905b81548152906001019060200180831161032057829003601f168201915b50505050509080600301549080600401549080600501549080600601805461036490610da1565b80601f016020809104026020016040519081016040528092919081815260200182805461039090610da1565b80156103dd5780601f106103b2576101008083540402835291602001916103dd565b820191906000526020600020905b8154815290600101906020018083116103c057829003601f168201915b5050505050905087565b600082815260208181526040808320600781018054600180820183559186528486200180546001600160a01b0319163317905560088201805491820181558552928420909201849055815490519192916001600160a01b039091169084908381818185875af1925050503d806000811461047d576040519150601f19603f3d011682016040523d82523d6000602084013e610482565b606091505b5050905080156104a25782826005015461049c9190610deb565b60058301555b50505050565b60015460009081526020819052604081206004810154421161051e5760405162461bcd60e51b815260206004820152602560248201527f54686520646561646c696e652073686f756c64206265206120667574757265206044820152643230ba329760d91b606482015260840160405180910390fd5b80546001600160a01b0319166001600160a01b038916178155600181016105458882610e53565b50600281016105548782610e53565b50600381018590556004810184905560006005820155600681016105788482610e53565b506001805490600061058983610f13565b91905055506001805461059c9190610f2c565b98975050505050505050565b6060600060015467ffffffffffffffff8111156105c7576105c7610ac4565b60405190808252806020026020018201604052801561065057816020015b61063d60405180610120016040528060006001600160a01b0316815260200160608152602001606081526020016000815260200160008152602001600081526020016060815260200160608152602001606081525090565b8152602001906001900390816105e55790505b50905060005b60015481101561094f57600081815260208181526040918290208251610120810190935280546001600160a01b03168352600181018054919392849290840191906106a090610da1565b80601f01602080910402602001604051908101604052809291908181526020018280546106cc90610da1565b80156107195780601f106106ee57610100808354040283529160200191610719565b820191906000526020600020905b8154815290600101906020018083116106fc57829003601f168201915b5050505050815260200160028201805461073290610da1565b80601f016020809104026020016040519081016040528092919081815260200182805461075e90610da1565b80156107ab5780601f10610780576101008083540402835291602001916107ab565b820191906000526020600020905b81548152906001019060200180831161078e57829003601f168201915b505050505081526020016003820154815260200160048201548152602001600582015481526020016006820180546107e290610da1565b80601f016020809104026020016040519081016040528092919081815260200182805461080e90610da1565b801561085b5780601f106108305761010080835404028352916020019161085b565b820191906000526020600020905b81548152906001019060200180831161083e57829003601f168201915b50505050508152602001600782018054806020026020016040519081016040528092919081815260200182805480156108bd57602002820191906000526020600020905b81546001600160a01b0316815260019091019060200180831161089f575b505050505081526020016008820180548060200260200160405190810160405280929190818152602001828054801561091557602002820191906000526020600020905b815481526020019060010190808311610901575b50505050508152505083838151811061093057610930610f3f565b602002602001018190525050808061094790610f13565b915050610656565b50919050565b60006020828403121561096757600080fd5b5035919050565b604080825283519082018190526000906020906060840190828701845b828110156109b05781516001600160a01b03168452928401929084019060010161098b565b5050508381038285015284518082528583019183019060005b818110156109e5578351835292840192918401916001016109c9565b5090979650505050505050565b6000815180845260005b81811015610a18576020818501810151868301820152016109fc565b506000602082860101526020601f19601f83011685010191505092915050565b6001600160a01b038816815260e060208201819052600090610a5c908301896109f2565b8281036040840152610a6e81896109f2565b90508660608401528560808401528460a084015282810360c0840152610a9481856109f2565b9a9950505050505050505050565b60008060408385031215610ab557600080fd5b50508035926020909101359150565b634e487b7160e01b600052604160045260246000fd5b600082601f830112610aeb57600080fd5b813567ffffffffffffffff80821115610b0657610b06610ac4565b604051601f8301601f19908116603f01168101908282118183101715610b2e57610b2e610ac4565b81604052838152866020858801011115610b4757600080fd5b836020870160208301376000602085830101528094505050505092915050565b60008060008060008060c08789031215610b8057600080fd5b86356001600160a01b0381168114610b9757600080fd5b9550602087013567ffffffffffffffff80821115610bb457600080fd5b610bc08a838b01610ada565b96506040890135915080821115610bd657600080fd5b610be28a838b01610ada565b9550606089013594506080890135935060a0890135915080821115610c0657600080fd5b50610c1389828a01610ada565b9150509295509295509295565b600081518084526020808501945080840160005b83811015610c595781516001600160a01b031687529582019590820190600101610c34565b509495945050505050565b600081518084526020808501945080840160005b83811015610c5957815187529582019590820190600101610c78565b60006020808301818452808551808352604092508286019150828160051b87010184880160005b83811015610d9357888303603f19018552815180516001600160a01b0316845261012088820151818a870152610cf3828701826109f2565b9150508782015185820389870152610d0b82826109f2565b606084810151908801526080808501519088015260a0808501519088015260c080850151888303828a01529193509150610d4583826109f2565b9250505060e08083015186830382880152610d608382610c20565b925050506101008083015192508582038187015250610d7f8183610c64565b968901969450505090860190600101610cbb565b509098975050505050505050565b600181811c90821680610db557607f821691505b60208210810361094f57634e487b7160e01b600052602260045260246000fd5b634e487b7160e01b600052601160045260246000fd5b80820180821115610dfe57610dfe610dd5565b92915050565b601f821115610e4e57600081815260208120601f850160051c81016020861015610e2b5750805b601f850160051c820191505b81811015610e4a57828155600101610e37565b5050505b505050565b815167ffffffffffffffff811115610e6d57610e6d610ac4565b610e8181610e7b8454610da1565b84610e04565b602080601f831160018114610eb65760008415610e9e5750858301515b600019600386901b1c1916600185901b178555610e4a565b600085815260208120601f198616915b82811015610ee557888601518255948401946001909101908401610ec6565b5085821015610f035787850151600019600388901b60f8161c191681555b5050505050600190811b01905550565b600060018201610f2557610f25610dd5565b5060010190565b81810381811115610dfe57610dfe610dd5565b634e487b7160e01b600052603260045260246000fdfea2646970667358221220131069f31c9354e6221a2d2b000abb0687be048a3deb58ee650e276954860c4464736f6c63430008140033",
	"linkReferences": {},
	"deployedLinkReferences": {}
}